:1000000015C1000043C1000041C100003FC1000014
:100010003DC100003BC1000039C1000037C10000F4
:1000200035C1000033C1000031C100002FC1000004
:100030002DC100002BC1000029C1000027C1000014
:1000400025C1000023C1000021C100001FC1000024
:100050001DC100001BC1000019C100001EC5000029
:1000600015C100008DC5000062C500000FC1000071
:100070000DC100000BC1000009C1000007C1000054
:1000800005C1000003C1000001C10000FFC0000065
:10009000FDC00000FBC00000F9C00000F7C0000078
:1000A000F5C00000F3C00000F1C00000EFC0000088
:1000B000EDC00000EBC00000E9C00000E7C0000098
:1000C000E5C00000E3C00000E1C00000DFC00000A8
:1000D000DDC00000DBC00000D9C00000D7C00000B8
:1000E000D5C0000062016501540158015E019C0108
:1000F00069016D01730177017B018101850189012E
:100100009C018F019301970100002000230026002D
:1001100029002C002F00320000010000030106011D
:10012000090100002100240027002A002D003000D2
:10013000330001010000040107010A010000220050
:10014000250028002B002E003100340002010000A1
:10015000050108010B010505050507050808080844
:10016000020202020A0A080804040404010101014F
:10017000010101010303030303030303040707074A
:100180000C0C0C0C0C0C0C0C0202020206060606EF
:10019000060606060B0B0B0B0B0B0B0B01021020BC
:1001A00020080810204010204080020102010804AD
:1001B0000201010204081020408080402010080441
:1001C000020180040201804020100804020108049A
:1001D00002010102040810204080010204081020DE
:1001E000408000000A0B02090C0D0E0807030401F1
:1001F00000000000000000000000000000000000FF
:1002000000000000000000000000000000001211CB
:1002100010000000000000000000000000000000CE
:100220000000000000000000F906B30911241FBE01
:10023000CFEFD1E2DEBFCDBF00E00CBF23E0A8E8E6
:10024000B2E001C01D92AA35B207E1F712E0A0E0CA
:10025000B2E0E4E2FBE100E00BBF02C007900D92C8
:10026000A838B107D9F711E0C5E1D1E000E006C038
:1002700021970109802FFE010E94540CC431D1073F
:1002800080E00807A9F700D60C94810DB9CE90E064
:10029000FC013197E231F10508F04EC08827EE5895
:1002A000FF4F8F4F0C94540C809180008F7703C0C8
:1002B000809180008F7D80938000089580918000E0
:1002C000877FF9CF84B58F7702C084B58F7D84BDD9
:1002D00008958091B0008F7703C08091B0008F7D2A
:1002E0008093B0000895809190008F7707C080912F
:1002F00090008F7D03C080919000877F8093900055
:1003000008958091A0008F7707C08091A0008F7D15
:1003100003C08091A000877F8093A0000895809102
:1003200020018F7707C0809120018F7D03C08091CD
:100330002001877F8093200108951F93CF93DF933F
:10034000282F30E0F901EE51FE4F8491F901E45677
:10035000FE4FD491F901EA5AFE4FC491CC23B9F073
:10036000162F811194DFEC2FF0E0EE0FFF1FE45CFD
:10037000FE4FA591B4919FB7F894111104C08C91D0
:10038000D095D82302C0EC91DE2BDC939FBFDF9188
:10039000CF911F910895CF93DF9390E0FC01E45635
:1003A000FE4F2491FC01EA5AFE4F8491882361F1AB
:1003B00090E0880F991FFC01EE5DFE4FC591D4912E
:1003C000FC01E45CFE4FA591B491611109C09FB797
:1003D000F8948881209582238883EC912E230BC08A
:1003E000623061F49FB7F8948881322F309583236F
:1003F0008883EC912E2B2C939FBF06C08FB7F89467
:10040000E8812E2B28838FBFDF91CF9108953FB7CE
:10041000F8948091A1029091A202A091A302B091C0
:10042000A40226B5A89B05C02F3F19F00196A11D77
:10043000B11D3FBFBA2FA92F982F8827820F911D7A
:10044000A11DB11DBC01CD0142E0660F771F881FC1
:10045000991F4A95D1F70895CF92DF92EF92FF92BC
:100460000F931F93CF93DF936C017A018B01C0E050
:10047000D0E0CE15DF0581F0D8016D918D01D60158
:10048000ED91FC910190F081E02DC6011995892B29
:1004900011F02196EECF7E01C701DF91CF911F9120
:1004A0000F91FF90EF90DF90CF900895089580E036
:1004B00090E00895FC01538D448D252F30E0842F6A
:1004C00090E0821B930B541710F0CF96089501977C
:1004D0000895FC01918D828D981761F0828DDF0166
:1004E000A80FB11D5D968C91928D9F5F9F73928F27
:1004F00090E008958FEF9FEF0895FC01918D828D1C
:10050000981731F0828DE80FF11D858D90E00895E8
:100510008FEF9FEF0895FC01918D228D892F90E040
:10052000805C9F4F821B91098F739927089585EAFC
:1005300092E0F1DF21E0892B09F420E0822F089579
:10054000FC01848DDF01A80FB11DA35ABF4F2C9170
:10055000848D90E001968F739927848FA689B7893F
:100560002C93A089B1898C91837080648C93938D36
:10057000848D981306C00288F389E02D80818F7DD9
:1005800080830895EF92FF920F931F93CF93DF9391
:10059000EC0181E0888F9B8D8C8D981305C0E889D4
:1005A000F989808185FD25C0F62E0B8D10E00F5F47
:1005B0001F4F0F731127E02E8C8DE8120BC00FB662
:1005C00007FCFACFE889F989808185FFF5CFCE0154
:1005D000B7DFF2CF8B8DFE01E80FF11DE35AFF4F1D
:1005E000F0829FB7F8940B8FEA89FB898081806243
:1005F0000AC09FB7F894EE89FF896083E889F9897A
:1006000080818370806480839FBF81E090E0DF9170
:10061000CF911F910F91FF90EF900895CF93DF93AB
:10062000EC01888D8823C1F0EA89FB89808185FDF2
:1006300005C0A889B9898C9186FD0EC00FB607FC4C
:10064000F5CF808185FFF2CFA889B9898C9185FF8C
:10065000EDCFCE0175DFE8CFDF91CF91089580E037
:1006600090E0892B19F063DF811125C080E090E0D4
:10067000892B41F080E090E0892B21F00E9400005E
:1006800081111CC080E090E0892B41F080E090E077
:10069000892B21F00E940000811113C080E090E0BE
:1006A000892BA1F080E090E0892B81F00E9400006E
:1006B00081110AC008950E940000D8CF0E94000056
:1006C000E1CF0E940000EACF0C9400000895CF9380
:1006D000DF93FC0185858F3F51F0EF0161E05BDE28
:1006E00061E08D852ADE8BE193E00197F1F7DF91E0
:1006F000CF910895CF93DF93FC0185858F3F51F013
:10070000EF0161E048DE60E08D8517DE8BE193E06C
:100710000197F1F7DF91CF910895DF92EF92FF9269
:100720000F931F93CF93DF93CDB7DEB7EE970FB63E
:10073000F894DEBF0FBECDBF8C017B01D42E8FEFAE
:10074000840FD801ED91FC91823020F40480F58172
:10075000E02D05C0411105C00280F381E02DC801E4
:100760001995D801ED91FC910084F185E02D20E0F0
:1007700041E0B701C8011995B5E0DB16F1F1D801E8
:10078000ED91FC910280F381E02DC8011995B2E052
:10079000DB1233C0D801ED91FC910084F185E02D8E
:1007A00020E041E0BE016F5F7F4FC801199540E036
:1007B000F8018485481708F5842F90E0880F991F69
:1007C000F701E80FF91F21E030E02C0F3D1F820FE9
:1007D000931FD8011E962D913C911F97DC018D919E
:1007E0009C91B901681B790BCB0120813181820F6B
:1007F000931F918380834F5FDBCFEE960FB6F89403
:10080000DEBF0FBECDBFDF91CF911F910F91FF9043
:10081000EF90DF900895009761F0FC0101900020B7
:10082000E9F73197AF01481B590BBC0185EA92E00B
:1008300013CE80E090E008952F923F924F925F9206
:100840006F927F928F929F92AF92BF92CF92DF92E0
:10085000EF92FF920F931F93CF93DF93CDB7DEB745
:10086000A4970FB6F894DEBF0FBECDBF6B017C011D
:10087000142F20E030E0A901A6D587FF0AC06DE261
:1008800085EA92E07FDE3C01F7FAF094F7F8F09405
:1008900002C0612C712C00E060E070E080E09FE31A
:1008A000011739F020E030E040E251E423D70F5F38
:1008B000F7CFA7019601BAD64B015C0183D76AA393
:1008C000C72ED82E092F19A2262F372F482F592F80
:1008D0007E0181E2E80EF11CEBA2FCA29AE0292E37
:1008E000312C412C512CCA01B901A20191019ED792
:1008F000605DF70162937F012115310541055105C6
:1009000091F7CF0188DF7301E80EF91E112309F476
:100910004BC06AA17C2D8D2D902F59D59B01AC0128
:10092000C501B40182D64B015C016EE285EA92E01A
:1009300029DEE80EF91E8AE0282E312C412C512C9C
:1009400020E030E040E251E4C501B401A1D54B0103
:100950005C0138D79B0140E050E019A2CBA0DCA09D
:10096000762E3AA3642E052FCA01B901A201910186
:100970005DD7605DF60162936F0121153105410578
:10098000510591F7CF0147DFE80EF91E672D7AA1D7
:10099000862D902F1CD59B01AC01C501B40145D615
:1009A0004B015C01115061F6C701A4960FB6F89493
:1009B000DEBF0FBECDBFDF91CF911F910F91FF9092
:1009C000EF90DF90CF90BF90AF909F908F907F90EF
:1009D0006F905F904F903F902F900895FF920F93EC
:1009E0001F93CF93DF93EC018B01F22E1B821A82AF
:1009F0001D821C821F821E8219861886198A188AF7
:100A0000403218F08FE18C8701C04C878A859B8526
:100A1000892B11F080E008C08C8590E04DD79B8732
:100A20008A87892BB9F712C09C85891770F4282F03
:100A300030E0F801E20FF31F90814A855B85FA01EF
:100A4000E20FF31F90838F5FEFCFFD86DF91CF9191
:100A50001F910F91FF900895EF92FF920F93CF9304
:100A6000DF93EC017901202FE881F98136978081AD
:100A700091818C0F9D1FB2DFE881F98136978081CB
:100A80009181C80FD91FFF86EE86DF91CF910F911C
:100A9000FF90EF9008950E947D0D1F920F920FB668
:100AA0000F9211242F933F938F939F93AF93BF93F4
:100AB00080919D0290919E02A0919F02B091A00210
:100AC00030919C0223E0230F2D3720F40196A11DC5
:100AD000B11D05C026E8230F0296A11DB11D20936C
:100AE0009C0280939D0290939E02A0939F02B093DC
:100AF000A0028091A1029091A202A091A302B091C4
:100B0000A4020196A11DB11D8093A1029093A2029F
:100B1000A093A302B093A402BF91AF919F918F9134
:100B20003F912F910F900FBE0F901F9018951F921D
:100B30000F920FB60F9211240BB60F922F933F9383
:100B40004F935F936F937F938F939F93AF93BF93D5
:100B5000EF93FF9385EA92E0F3DCFF91EF91BF9171
:100B6000AF919F918F917F916F915F914F913F9145
:100B70002F910F900BBE0F900FBE0F901F901895E6
:100B80001F920F920FB60F9211240BB60F922F9354
:100B90008F939F93EF93FF93E091B502F091B6028C
:100BA0008081E091BB02F091BC0282FD12C0908175
:100BB0008091BE028F5F8F732091BF02821751F028
:100BC000E091BE02F0E0EB55FD4F958F8093BE02A1
:100BD00001C08081FF91EF919F918F912F910F9094
:100BE0000BBE0F900FBE0F901F9018953F924F9223
:100BF0005F926F927F928F929F92AF92BF92CF92AD
:100C0000DF92EF92FF920F931F93CF93DF93DC015C
:100C1000ED91FC9136970190F081E02DE80FF91FDE
:100C20000284F385E02DEF2B09F4C7C0622E742EE9
:100C30006B01EC01F22EE881F9813697A081B18138
:100C4000AC0FBD1F1C968C911C97F81660F50F2DEC
:100C500010E01E968D919C911F97D801AA0FBB1F83
:100C6000AC0DBD1D8D939C930190F081E02DEC0F98
:100C7000FD1F0284F385E02DE00FF11F61E080810C
:100C80008ADBE881F98136970190F081E02DEC0F45
:100C9000FD1F82859385FC01E00FF11F61E08081DB
:100CA0004CDBF70CC8CF83E290E00197F1F7162DEB
:100CB000E881F98136970190F081E02DEC0FFD1F5E
:100CC00084851817E0F4E12EF12C0284F385E02DE1
:100CD000EE0DFF1D60E080815EDBE881F9813697D3
:100CE0000190F081E02DEC0FFD1F82859385FC01C2
:100CF000EE0DFF1D60E0808120DB170DD9CF87DB73
:100D00004B015C0184DBAB01BC01481959096A093C
:100D10007B09E881F98136970190F081E02DEC0F95
:100D2000FD1F86859785A0E0B0E0481759076A0740
:100D30007B0708F042C06BDB7B01E818F908562CF2
:100D4000E881F98136970190F081E02DEC0FFD1FCD
:100D500084855816B8F6052D10E00284F385E02D41
:100D6000E00FF11F608170E0FB01EE51FE4F8491B6
:100D7000FB01E456FE4F4490FB01EA5AFE4F3490CB
:100D8000332069F0811183DAE32DF0E0EE0FFF1FCD
:100D9000E85FFE4FA591B491EC914E2261F4000FF3
:100DA000111FF601E00FF11F80819181E816F9060D
:100DB00010F4F182E082570CC3CFDF91CF911F91E5
:100DC0000F91FF90EF90DF90CF90BF90AF909F90EA
:100DD0008F907F906F905F904F903F900895DC01CF
:100DE000ED91FC913E970190F081E02D8E0F9F1FB9
:100DF000FDCE0F93E5EAF2E01382128288EE93E0D3
:100E0000A0E0B0E084839583A683B7838CE392E06F
:100E10009183808385EC90E09587848784EC90E0D3
:100E20009787868780EC90E0918B808B81EC90E0B7
:100E3000938B828B82EC90E0958B848B86EC90E098
:100E4000978B868B118E128E138E148EE2E4F3E054
:100E500015821482178216821186108613861286D6
:100E6000158614868EE592E09183808380E792E078
:100E70009383828305E324EC39E04AE060E072E08A
:100E8000CF01EADD0F910895CF93DF93CDB7DEB7A1
:100E9000C056D1090FB6F894DEBF0FBECDBF78940F
:100EA00084B5826084BD84B5816084BD85B582606F
:100EB00085BD85B5816085BD80916E008160809320
:100EC0006E00109281008091810082608093810089
:100ED0008091810081608093810080918000816099
:100EE000809380008091B10084608093B1008091F4
:100EF000B00081608093B000809191008260809307
:100F00009100809191008160809391008091900088
:100F10008160809390008091A10082608093A10005
:100F20008091A10081608093A1008091A0008160E8
:100F30008093A000809121018260809321018091A3
:100F40002101816080932101809120018160809343
:100F5000200180917A00846080937A0080917A00E9
:100F6000826080937A0080917A00816080937A0019
:100F700080917A00806880937A001092C100E0919D
:100F8000B502F091B60282E08083E091B102F09167
:100F9000B2021082E091B302F091B4028FEC808330
:100FA0001092BD02E091B902F091BA0286E080830E
:100FB000E091B702F091B802808180618083E09176
:100FC000B702F091B802808188608083E091B70217
:100FD000F091B802808180688083E091B702F0913F
:100FE000B80280818F7D808380914803909149036E
:100FF000892BC1F40091500310E0C801880F991F9C
:101000005BD49093490380934803009709F4A7C0E9
:10101000FC0180E090E08017910724F41192119276
:101020000196F9CF8091460390914703892B19F0DF
:1010300000E010E01CC00091500310E0C801880FD0
:10104000991F3AD49093470380934603009709F47D
:1010500086C02091520330915303FC0180E090E060
:10106000801791072CF7219331930196F9CF41E036
:10107000BE016F5B7F4F84E493E04FDBA090500391
:10108000B12C9E012F5F3F4FFE01EF5BFF4FAE0182
:101090004F5D5F4F4A01C90160E070E06A157B0552
:1010A0004CF50115110589F0D401CD90DC90E0805C
:1010B000F180CE14DF0448F0DC01CD90DC90E080BC
:1010C000F180EC14FD0448F00DC0E080F180D40103
:1010D000ED92FC920115110579F7E080F180DC01B9
:1010E000ED92FC926F5F7F4F02963296B2E08B0ECC
:1010F000911CD4CF0F5F1F4F0A30110509F0B7CFF5
:10110000A0914603B0914703E0904803F090490353
:1011100080E090E06091500370E086179707FCF440
:10112000F901619171919F01F70100811181061709
:10113000170710F471836083FA0161917191AF0117
:101140000D911C9111976017710718F411967C93FB
:101150006E9301961296F2E0EF0EF11CDBCF84E164
:10116000E0E1F2E0DE01919601900D928A95E1F7BF
:1011700084E1E4E2F2E0DE01119601900D928A959D
:10118000E1F7DE01919620914803309149038E01E9
:101190000F5F1F4F8091460390914703AE014B5C58
:1011A0005F4F6D917D91F901619371939F01F801FA
:1011B000619171918F01FC0161937193CF01A4172B
:1011C000B50779F78091460390914703892B29F45D
:1011D000E8E8F2E060E070E053C08091480390914D
:1011E0004903892BA9F341E068E872E084E493E0C5
:1011F00094DAC0905003D12C88E8E82E82E0F82ED3
:10120000A0904803B0904903809046039090470314
:1012100000E010E00C151D05DCF6D501ED91FD9107
:101220005D01D4018D919D914D01E81BF90BB1F049
:10123000D7012D913C91A90160E070E09A01AB01CA
:10124000281B390B41095109A8EEB3E0D5D19F0104
:1012500040E050E00DD337FD0AC002C020E030E08E
:10126000293EB3E03B072CF028EE33E002C020E03B
:1012700030E0F701219331937F010F5F1F4FCACFF9
:1012800081919191892B39F06F5F7F4F6A307105A1
:10129000B9F76FEF7FEFECE9F2E089E090E032918F
:1012A0002291232B19F00197D0F753C0680F791FB3
:1012B000072E000C880B990B8CD020E030E040E02A
:1012C0005FE3E6D020E030E040EA50E4AED16B01CD
:1012D0007C019B01AC01A6D2882319F08AE792E039
:1012E00024C046015701E894B7F82FEF3FEF4FE7CE
:1012F0005FE7C501B40196D281110CC02FEF3FEF1B
:101300004FE75FE7C501B4015ED018161CF48EE705
:1013100092E00BC02FEF3FEF4FE75FE4C701B6014C
:101320007DD2181624F482E892E075DA0DC02FEF12
:101330003FEF4FE75FECC701B60145D087FDF3CF24
:1013400042E0C701B60178DA86E892E064DA87D92C
:1013500039CF6F3FAFEF7A0709F0A8CF42E060E0E6
:1013600070E0CB01F0CF8EE592E090934303809341
:1013700042038EE492E0909345038093440380916E
:101380004E0390914F03009709F02ED380914803AC
:1013900090914903009709F027D380914C039091D5
:1013A0004D03009709F020D38091460390914703A5
:1013B000009709F019D380914A0390914B0300974D
:1013C00009F012C3089540D008F481E00895E8942C
:1013D00009C097FB3EF490958095709561957F4F7D
:1013E0008F4F9F4F9923A9F0F92F96E9BB2793952B
:1013F000F695879577956795B795F111F8CFFAF43B
:10140000BB0F11F460FF1BC06F5F7F4F8F4F9F4F6B
:1014100016C0882311F096E911C0772321F09EE8C9
:10142000872F762F05C0662371F096E8862F70E02F
:1014300060E02AF09A95660F771F881FDAF7880F09
:101440009695879597F90895990F0008550FAA0B5F
:10145000E0E8FEEF16161706E807F907C0F01216C7
:101460001306E407F50798F0621B730B840B950BCA
:1014700039F40A2661F0232B242B252B21F408951F
:101480000A2609F4A140A6958FEF811D811D0895BC
:101490000BD078C069D028F06ED018F0952309F0F1
:1014A0005AC05FC01124A2C07ED0A0F3959FD1F393
:1014B000950F50E0551F629FF001729FBB27F00D02
:1014C000B11D639FAA27F00DB11DAA1F649F662757
:1014D000B00DA11D661F829F2227B00DA11D621FA6
:1014E000739FB00DA11D621F839FA00D611D221F60
:1014F000749F3327A00D611D231F849F600D211D44
:10150000822F762F6A2F11249F5750408AF0E1F0E6
:1015100088234AF0EE0FFF1FBB1F661F771F881F2F
:1015200091505040A9F79E3F510570F014C05EC025
:101530005F3FECF3983EDCF3869577956795B7951A
:10154000F795E7959F5FC1F7FE2B880F911D969544
:10155000879597F9089597F99F6780E870E060E0B4
:1015600008959FEF80EC089500240A94161617063C
:1015700018060906089500240A9412161306140684
:1015800005060895092E0394000C11F4882352F0E7
:10159000BB0F40F4BF2B11F460FF04C06F5F7F4F9F
:1015A0008F4F9F4F089557FD9058440F551F59F086
:1015B0005F3F71F04795880F97FB991F61F09F3F40
:1015C00079F087950895121613061406551FF2CF69
:1015D0004695F1DF08C0161617061806991FF1CFB9
:1015E00086957105610508940895E894BB276627E0
:1015F0007727CB0197F9089509D0A59F900DB49F47
:10160000900DA49F800D911D11240895A29FB001FB
:10161000B39FC001A39F700D811D1124911DB29F26
:10162000700D811D1124911D08955058BB27AA27C4
:101630000ED0A8CF99DF30F09EDF20F031F49F3F2D
:1016400011F41EF48ECF0EF4E095E7FB84CFE92F62
:10165000AADF80F3BA17620773078407950718F0AB
:1016600071F49EF5C2CF0EF4E0950B2EBA2FA02D8B
:101670000B01B90190010C01CA01A0011124FF273F
:10168000591B99F0593F50F4503E68F11A16F0403A
:10169000A22F232F342F4427585FF3CF4695379539
:1016A0002795A795F0405395C9F77EF41F16BA0BFE
:1016B000620B730B840BBAF09150A1F0FF0FBB1FAC
:1016C000661F771F881FC2F70EC0BA0F621F731FF5
:1016D000841F48F4879577956795B795F7959E3F52
:1016E00008F0B3CF9395880F08F09927EE0F9795E0
:1016F000879508950CD046CF3EDF40F035DF30F0BF
:1017000021F45F3F19F027CF511170CF2ACF4BDF63
:1017100098F39923C9F35523B1F3951B550BBB27B8
:10172000AA2762177307840738F09F5F5F4F220F65
:10173000331F441FAA1FA9F333D00E2E3AF0E0E85E
:1017400030D091505040E695001CCAF729D0FE2FAA
:1017500027D0660F771F881FBB1F2617370748073C
:10176000AB07B0E809F0BB0B802DBF01FF279358F2
:101770005F4F2AF09E3F510568F0EDCE37CF5F3FB7
:10178000ECF3983EDCF3869577956795B795F795DA
:101790009F5FC9F7880F911D9695879597F90895D2
:1017A000E1E0660F771F881FBB1F6217730784076E
:1017B000BA0720F0621B730B840BBA0BEE1F88F77D
:1017C000E0950895F8DE88F09F5790F0B92F99279B
:1017D000B751A0F0D1F0660F771F881F991F1AF03C
:1017E000BA95C9F712C0B13081F0FFDEB1E00895BB
:1017F000FCCE672F782F8827B85F39F0B93FCCF33C
:10180000869577956795B395D9F73EF49095809531
:10181000709561957F4F8F4F9F4F089515DE08F4A7
:101820008FEF089511DE880B990B0895A1E21A2E0F
:10183000AA1BBB1BFD010DC0AA1FBB1FEE1FFF1F74
:10184000A217B307E407F50720F0A21BB30BE40BC4
:10185000F50B661F771F881F991F1A9469F760950B
:101860007095809590959B01AC01BD01CF010895C5
:10187000052E97FB16F400940FD057FD05D0D6DF48
:1018800007FC02D046F408C050954095309521954C
:101890003F4F4F4F5F4F089590958095709561959C
:1018A0007F4F8F4F9F4F0895EE0FFF1F881F8BBFF5
:1018B0000790F691E02D19940F931F93CF93DF9328
:1018C0008230910510F482E090E0E0915803F091AD
:1018D000590320E030E0A0E0B0E0309719F14081FA
:1018E00051810281138148175907C8F08417950761
:1018F00069F4109731F012960C93129713961C937B
:1019000027C0009358031093590322C021153105B5
:1019100019F04217530718F49A01BD01EF01DF01D6
:10192000F801DBCF21153105F9F0281B390B2430E4
:10193000310580F48A819B816115710521F0FB01DD
:101940009383828304C09093590380935803FE01CC
:10195000329644C0FE01E20FF31F8193919322500F
:101960003109398328833AC02091560330915703B7
:10197000232B41F420910C0230910D023093570338
:101980002093560320910A0230910B022115310554
:1019900041F42DB73EB740910E0250910F02241B27
:1019A000350BE0915603F0915703E217F307A0F4CB
:1019B0002E1B3F0B2817390778F0AC014E5F5F4FA5
:1019C0002417350748F04E0F5F1F5093570340937D
:1019D00056038193919302C0E0E0F0E0CF01DF91E4
:1019E000CF911F910F910895CF93DF93009709F442
:1019F00081C0FC01329713821282A0915803B091EA
:101A00005903109781F420813181820F931F209117
:101A10005603309157032817390751F5F0935703B0
:101A2000E093560367C0ED0120E030E0CE17DF07FA
:101A300040F44A815B819E0141155105F1F0EA01B4
:101A4000F5CFD383C28340815181840F951FC8177E
:101A5000D90759F488819981840F951F0296918343
:101A600080838A819B81938382832115310529F4A8
:101A7000F0935903E09358033DC0E901FB83EA83E7
:101A800049915991C40FD51FEC17FD0761F480816E
:101A90009181840F951F0296E90199838883828141
:101AA00093819B838A83E0E0F0E012968D919C9174
:101AB0001397009719F0FD01DC01F7CF8D919C91F0
:101AC00011979D012E5F3F4F820F931F2091560368
:101AD000309157032817390769F4309729F4109289
:101AE00059031092580302C013821282B093570315
:101AF000A0935603DF91CF91089581E090E0F89490
:101B000000C011E0C5E1D1E000E005C0802FFE017A
:101B1000CBDE2196011DC631D10780E00807B1F761
:041B2000F894FFCF67
:101B240034333231302F2C2B2E2D00005A038000F9
:101B3400140604053C01FC03040184050C050C0592
:101B44000C06C805C8008800840084008400C00016
:101B5400C000C400C000C40000000000C2022C0287
:101B64005A020E038B0269027D02000000008D03FD
:101B74007A036703EE044B050200000000002C0505
:101B8400F605FEFF0000000000000000FEFF00005C
:101B94008D037A036703EE04EF066E616E00696ECF
:081BA40066006F7666000A007E
:00000001FF
